{
  "address": "0x0bB4B972De08d6f658BB97F404Fa04563e210d56",
  "abi": [
    {
      "inputs": [
        {
          "internalType": "contract IStable",
          "name": "_stableCoin",
          "type": "address"
        },
        {
          "internalType": "address",
          "name": "_priceFeed",
          "type": "address"
        }
      ],
      "stateMutability": "nonpayable",
      "type": "constructor"
    },
    {
      "anonymous": false,
      "inputs": [
        {
          "indexed": false,
          "internalType": "uint256",
          "name": "collateralDeposited",
          "type": "uint256"
        },
        {
          "indexed": false,
          "internalType": "uint256",
          "name": "amountMinted",
          "type": "uint256"
        }
      ],
      "name": "Deposit",
      "type": "event"
    },
    {
      "anonymous": false,
      "inputs": [
        {
          "indexed": false,
          "internalType": "uint256",
          "name": "collateralWithdrawn",
          "type": "uint256"
        },
        {
          "indexed": false,
          "internalType": "uint256",
          "name": "amountBurned",
          "type": "uint256"
        }
      ],
      "name": "Withdraw",
      "type": "event"
    },
    {
      "inputs": [
        {
          "internalType": "uint256",
          "name": "_collAmount",
          "type": "uint256"
        }
      ],
      "name": "borrow",
      "outputs": [],
      "stateMutability": "payable",
      "type": "function"
    },
    {
      "inputs": [
        {
          "internalType": "uint256",
          "name": "_amount",
          "type": "uint256"
        }
      ],
      "name": "deposit",
      "outputs": [],
      "stateMutability": "payable",
      "type": "function"
    },
    {
      "inputs": [
        {
          "internalType": "uint256",
          "name": "_stableCoinAmount",
          "type": "uint256"
        }
      ],
      "name": "estimateCollateralAmount",
      "outputs": [
        {
          "internalType": "uint256",
          "name": "collateralAmount",
          "type": "uint256"
        }
      ],
      "stateMutability": "view",
      "type": "function"
    },
    {
      "inputs": [
        {
          "internalType": "uint256",
          "name": "_depositAmount",
          "type": "uint256"
        }
      ],
      "name": "estimateTokenAmount",
      "outputs": [
        {
          "internalType": "uint256",
          "name": "tokenAmount",
          "type": "uint256"
        }
      ],
      "stateMutability": "view",
      "type": "function"
    },
    {
      "inputs": [],
      "name": "getEthUSDPrice",
      "outputs": [
        {
          "internalType": "uint256",
          "name": "",
          "type": "uint256"
        }
      ],
      "stateMutability": "view",
      "type": "function"
    },
    {
      "inputs": [],
      "name": "getLatestPrice",
      "outputs": [
        {
          "internalType": "int256",
          "name": "",
          "type": "int256"
        }
      ],
      "stateMutability": "view",
      "type": "function"
    },
    {
      "inputs": [
        {
          "internalType": "address",
          "name": "_address",
          "type": "address"
        }
      ],
      "name": "getVault",
      "outputs": [
        {
          "components": [
            {
              "internalType": "uint256",
              "name": "debtAmount",
              "type": "uint256"
            },
            {
              "internalType": "uint256",
              "name": "collateralAmount",
              "type": "uint256"
            }
          ],
          "internalType": "struct ISimpleVault.Vault",
          "name": "vault",
          "type": "tuple"
        }
      ],
      "stateMutability": "view",
      "type": "function"
    },
    {
      "inputs": [
        {
          "internalType": "uint256",
          "name": "_collAmount",
          "type": "uint256"
        }
      ],
      "name": "withdraw",
      "outputs": [],
      "stateMutability": "nonpayable",
      "type": "function"
    }
  ],
  "transactionHash": "0xfccdf362b71c3f340be872ba2f66252416f2ea4e88f755090dfda83bc2ffc367",
  "args": [
    "0x7D59FadDf81c42560D912F46500e24472B9912D4",
    "0x8A753747A1Fa494EC906cE90E9f37563A8AF630e"
  ],
  "numDeployments": 1,
  "solcInputHash": "d327e8f1500cef7ed234bacb9a4f0f4f",
  "bytecode": "0x608060405260646002553480156200001657600080fd5b50604051620011053803806200110583398181016040528101906200003c9190620000f5565b80806000806101000a81548173ffffffffffffffffffffffffffffffffffffffff021916908373ffffffffffffffffffffffffffffffffffffffff1602179055505081600160006101000a81548173ffffffffffffffffffffffffffffffffffffffff021916908373ffffffffffffffffffffffffffffffffffffffff1602179055505050620001bd565b600081519050620000d88162000189565b92915050565b600081519050620000ef81620001a3565b92915050565b600080604083850312156200010f576200010e62000184565b5b60006200011f85828601620000de565b92505060206200013285828601620000c7565b9150509250929050565b6000620001498262000164565b9050919050565b60006200015d826200013c565b9050919050565b600073ffffffffffffffffffffffffffffffffffffffff82169050919050565b600080fd5b62000194816200013c565b8114620001a057600080fd5b50565b620001ae8162000150565b8114620001ba57600080fd5b50565b610f3880620001cd6000396000f3fe60806040526004361061007b5760003560e01c80638e15f4731161004e5780638e15f47314610160578063b6b55f251461018b578063c5ebeaec146101a7578063d84549d7146101c35761007b565b80630eb9af38146100805780631b05ab79146100bd5780632e1a7d4d146100fa57806356bfdaf514610123575b600080fd5b34801561008c57600080fd5b506100a760048036038101906100a2919061096e565b6101ee565b6040516100b49190610bed565b60405180910390f35b3480156100c957600080fd5b506100e460048036038101906100df91906109c8565b61025b565b6040516100f19190610c08565b60405180910390f35b34801561010657600080fd5b50610121600480360381019061011c91906109c8565b61028f565b005b34801561012f57600080fd5b5061014a600480360381019061014591906109c8565b610611565b6040516101579190610c08565b60405180910390f35b34801561016c57600080fd5b50610175610640565b6040516101829190610b92565b60405180910390f35b6101a560048036038101906101a091906109c8565b6106ee565b005b6101c160048036038101906101bc91906109c8565b6106fa565b005b3480156101cf57600080fd5b506101d86108b2565b6040516101e59190610c08565b60405180910390f35b6101f66108d6565b600360008373ffffffffffffffffffffffffffffffffffffffff1673ffffffffffffffffffffffffffffffffffffffff168152602001908152602001600020604051806040016040529081600082015481526020016001820154815250509050919050565b600080670de0b6b3a764000061026f6108b2565b8461027a9190610ce4565b6102849190610cb3565b905080915050919050565b600360003373ffffffffffffffffffffffffffffffffffffffff1673ffffffffffffffffffffffffffffffffffffffff16815260200190815260200160002060000154811115610314576040517f08c379a000000000000000000000000000000000000000000000000000000000815260040161030b90610bcd565b60405180910390fd5b80600160009054906101000a900473ffffffffffffffffffffffffffffffffffffffff1673ffffffffffffffffffffffffffffffffffffffff166370a08231336040518263ffffffff1660e01b81526004016103709190610b4e565b60206040518083038186803b15801561038857600080fd5b505afa15801561039c573d6000803e3d6000fd5b505050506040513d601f19601f820116820180604052508101906103c091906109f5565b1015610401576040517f08c379a00000000000000000000000000000000000000000000000000000000081526004016103f890610bad565b60405180910390fd5b6000670de0b6b3a76400006104146108b2565b8361041f9190610cb3565b6104299190610ce4565b9050600160009054906101000a900473ffffffffffffffffffffffffffffffffffffffff1673ffffffffffffffffffffffffffffffffffffffff16639dc29fac33846040518363ffffffff1660e01b8152600401610488929190610b69565b602060405180830381600087803b1580156104a257600080fd5b505af11580156104b6573d6000803e3d6000fd5b505050506040513d601f19601f820116820180604052508101906104da919061099b565b5080600360003373ffffffffffffffffffffffffffffffffffffffff1673ffffffffffffffffffffffffffffffffffffffff168152602001908152602001600020600101600082825461052d9190610d3e565b9250508190555081600360003373ffffffffffffffffffffffffffffffffffffffff1673ffffffffffffffffffffffffffffffffffffffff16815260200190815260200160002060000160008282546105869190610d3e565b925050819055503373ffffffffffffffffffffffffffffffffffffffff166108fc829081150290604051600060405180830381858888f193505050501580156105d3573d6000803e3d6000fd5b507f56ca301a9219608c91e7bcee90e083c19671d2cdcc96752c7af291cee5f9c8c88183604051610605929190610c23565b60405180910390a15050565b6000670de0b6b3a76400006106246108b2565b8361062f9190610cb3565b6106399190610ce4565b9050919050565b60008060008054906101000a900473ffffffffffffffffffffffffffffffffffffffff1673ffffffffffffffffffffffffffffffffffffffff1663feaf968c6040518163ffffffff1660e01b815260040160a06040518083038186803b1580156106a957600080fd5b505afa1580156106bd573d6000803e3d6000fd5b505050506040513d601f19601f820116820180604052508101906106e19190610a22565b5050509150508091505090565b6106f7816106fa565b50565b34811461070657600080fd5b60006107118261025b565b9050600160009054906101000a900473ffffffffffffffffffffffffffffffffffffffff1673ffffffffffffffffffffffffffffffffffffffff166340c10f1933836040518363ffffffff1660e01b8152600401610770929190610b69565b602060405180830381600087803b15801561078a57600080fd5b505af115801561079e573d6000803e3d6000fd5b505050506040513d601f19601f820116820180604052508101906107c2919061099b565b5081600360003373ffffffffffffffffffffffffffffffffffffffff1673ffffffffffffffffffffffffffffffffffffffff16815260200190815260200160002060010160008282546108159190610c5d565b9250508190555080600360003373ffffffffffffffffffffffffffffffffffffffff1673ffffffffffffffffffffffffffffffffffffffff168152602001908152602001600020600001600082825461086e9190610c5d565b925050819055507fa3af609bf46297028ce551832669030f9effef2b02606d02cbbcc40fe6b47c5582826040516108a6929190610c23565b60405180910390a15050565b6000806108bd610640565b90506402540be400816108d09190610ce4565b91505090565b604051806040016040528060008152602001600081525090565b6000813590506108ff81610e8f565b92915050565b60008151905061091481610ea6565b92915050565b60008151905061092981610ebd565b92915050565b60008135905061093e81610ed4565b92915050565b60008151905061095381610ed4565b92915050565b60008151905061096881610eeb565b92915050565b60006020828403121561098457610983610e38565b5b6000610992848285016108f0565b91505092915050565b6000602082840312156109b1576109b0610e38565b5b60006109bf84828501610905565b91505092915050565b6000602082840312156109de576109dd610e38565b5b60006109ec8482850161092f565b91505092915050565b600060208284031215610a0b57610a0a610e38565b5b6000610a1984828501610944565b91505092915050565b600080600080600060a08688031215610a3e57610a3d610e38565b5b6000610a4c88828901610959565b9550506020610a5d8882890161091a565b9450506040610a6e88828901610944565b9350506060610a7f88828901610944565b9250506080610a9088828901610959565b9150509295509295909350565b610aa681610d72565b82525050565b610ab581610d90565b82525050565b6000610ac8600f83610c4c565b9150610ad382610e3d565b602082019050919050565b6000610aeb601783610c4c565b9150610af682610e66565b602082019050919050565b604082016000820151610b176000850182610b30565b506020820151610b2a6020850182610b30565b50505050565b610b3981610dba565b82525050565b610b4881610dba565b82525050565b6000602082019050610b636000830184610a9d565b92915050565b6000604082019050610b7e6000830185610a9d565b610b8b6020830184610b3f565b9392505050565b6000602082019050610ba76000830184610aac565b92915050565b60006020820190508181036000830152610bc681610abb565b9050919050565b60006020820190508181036000830152610be681610ade565b9050919050565b6000604082019050610c026000830184610b01565b92915050565b6000602082019050610c1d6000830184610b3f565b92915050565b6000604082019050610c386000830185610b3f565b610c456020830184610b3f565b9392505050565b600082825260208201905092915050565b6000610c6882610dba565b9150610c7383610dba565b9250827fffffffffffffffffffffffffffffffffffffffffffffffffffffffffffffffff03821115610ca857610ca7610dda565b5b828201905092915050565b6000610cbe82610dba565b9150610cc983610dba565b925082610cd957610cd8610e09565b5b828204905092915050565b6000610cef82610dba565b9150610cfa83610dba565b9250817fffffffffffffffffffffffffffffffffffffffffffffffffffffffffffffffff0483118215151615610d3357610d32610dda565b5b828202905092915050565b6000610d4982610dba565b9150610d5483610dba565b925082821015610d6757610d66610dda565b5b828203905092915050565b6000610d7d82610d9a565b9050919050565b60008115159050919050565b6000819050919050565b600073ffffffffffffffffffffffffffffffffffffffff82169050919050565b6000819050919050565b600069ffffffffffffffffffff82169050919050565b7f4e487b7100000000000000000000000000000000000000000000000000000000600052601160045260246000fd5b7f4e487b7100000000000000000000000000000000000000000000000000000000600052601260045260246000fd5b600080fd5b7f6e6f7420656e6f756768204c4159730000000000000000000000000000000000600082015250565b7f7769746864726177206c696d6974206578636565646564000000000000000000600082015250565b610e9881610d72565b8114610ea357600080fd5b50565b610eaf81610d84565b8114610eba57600080fd5b50565b610ec681610d90565b8114610ed157600080fd5b50565b610edd81610dba565b8114610ee857600080fd5b50565b610ef481610dc4565b8114610eff57600080fd5b5056fea2646970667358221220aac72dacbcb0a4bfe515804408c992d8e480f49932cd397a4e3c87cc46c7a81e64736f6c63430008070033",
  "devdoc": {
    "kind": "dev",
    "methods": {
      "borrow(uint256)": {
        "params": {
          "_collAmount": "The amount of collateral to be borrowed against."
        }
      },
      "estimateCollateralAmount(uint256)": {
        "params": {
          "_stableCoinAmount": "the amount of stable coin that would be repaid"
        },
        "returns": {
          "collateralAmount": "the estimated amount of a vault's collateral that would be returned "
        }
      },
      "estimateTokenAmount(uint256)": {
        "params": {
          "_depositAmount": "the amount of ETH that would be deposited"
        },
        "returns": {
          "tokenAmount": " the estimated amount of stablecoin that would be minted"
        }
      },
      "getVault(address)": {
        "params": {
          "_address": "the address of the vault owner"
        },
        "returns": {
          "vault": "the vault details for account"
        }
      },
      "withdraw(uint256)": {
        "params": {
          "_collAmount": "The amount of collateral to be withdrawn."
        }
      }
    },
    "version": 1
  },
  "userdoc": {
    "kind": "user",
    "methods": {
      "borrow(uint256)": {
        "notice": "Mints the stable coin to the borrower for supplied collateral."
      },
      "estimateCollateralAmount(uint256)": {
        "notice": "Returns estimate of collateral amount that can be withdrawn for a given amount of stablecoin"
      },
      "estimateTokenAmount(uint256)": {
        "notice": "Returns an estimate on how much stable coin could be minted at the current rate"
      },
      "getLatestPrice()": {
        "notice": "Returns the latest price"
      },
      "getVault(address)": {
        "notice": "Returns the details of a vault"
      },
      "withdraw(uint256)": {
        "notice": "Withdraws the collateral worth the amount of LAYs borrowed."
      }
    },
    "version": 1
  },
  "storageLayout": {
    "storage": [
      {
        "astId": 994,
        "contract": "contracts/SimpleVault.sol:SimpleVault",
        "label": "priceFeed",
        "offset": 0,
        "slot": "0",
        "type": "t_contract(AggregatorV3Interface)45"
      },
      {
        "astId": 1036,
        "contract": "contracts/SimpleVault.sol:SimpleVault",
        "label": "stableCoin",
        "offset": 0,
        "slot": "1",
        "type": "t_contract(IStable)988"
      },
      {
        "astId": 1039,
        "contract": "contracts/SimpleVault.sol:SimpleVault",
        "label": "collRatio",
        "offset": 0,
        "slot": "2",
        "type": "t_uint256"
      },
      {
        "astId": 1044,
        "contract": "contracts/SimpleVault.sol:SimpleVault",
        "label": "vaults",
        "offset": 0,
        "slot": "3",
        "type": "t_mapping(t_address,t_struct(Vault)912_storage)"
      }
    ],
    "types": {
      "t_address": {
        "encoding": "inplace",
        "label": "address",
        "numberOfBytes": "20"
      },
      "t_contract(AggregatorV3Interface)45": {
        "encoding": "inplace",
        "label": "contract AggregatorV3Interface",
        "numberOfBytes": "20"
      },
      "t_contract(IStable)988": {
        "encoding": "inplace",
        "label": "contract IStable",
        "numberOfBytes": "20"
      },
      "t_mapping(t_address,t_struct(Vault)912_storage)": {
        "encoding": "mapping",
        "key": "t_address",
        "label": "mapping(address => struct ISimpleVault.Vault)",
        "numberOfBytes": "32",
        "value": "t_struct(Vault)912_storage"
      },
      "t_struct(Vault)912_storage": {
        "encoding": "inplace",
        "label": "struct ISimpleVault.Vault",
        "members": [
          {
            "astId": 909,
            "contract": "contracts/SimpleVault.sol:SimpleVault",
            "label": "debtAmount",
            "offset": 0,
            "slot": "0",
            "type": "t_uint256"
          },
          {
            "astId": 911,
            "contract": "contracts/SimpleVault.sol:SimpleVault",
            "label": "collateralAmount",
            "offset": 0,
            "slot": "1",
            "type": "t_uint256"
          }
        ],
        "numberOfBytes": "64"
      },
      "t_uint256": {
        "encoding": "inplace",
        "label": "uint256",
        "numberOfBytes": "32"
      }
    }
  }
}